{
  "contractName": "Voting",
  "abi": [
    {
      "constant": true,
      "inputs": [
        {
          "name": "",
          "type": "bytes32"
        }
      ],
      "name": "votesReceived",
      "outputs": [
        {
          "name": "",
          "type": "uint8"
        }
      ],
      "payable": false,
      "stateMutability": "view",
      "type": "function"
    },
    {
      "constant": true,
      "inputs": [
        {
          "name": "",
          "type": "uint256"
        }
      ],
      "name": "candidateList",
      "outputs": [
        {
          "name": "",
          "type": "string"
        }
      ],
      "payable": false,
      "stateMutability": "view",
      "type": "function"
    },
    {
      "constant": false,
      "inputs": [
        {
          "name": "candidateNames",
          "type": "string"
        }
      ],
      "name": "addCandidate",
      "outputs": [],
      "payable": false,
      "stateMutability": "nonpayable",
      "type": "function"
    },
    {
      "constant": true,
      "inputs": [
        {
          "name": "candidate",
          "type": "string"
        }
      ],
      "name": "totalVotesFor",
      "outputs": [
        {
          "name": "",
          "type": "uint8"
        }
      ],
      "payable": false,
      "stateMutability": "view",
      "type": "function"
    },
    {
      "constant": false,
      "inputs": [
        {
          "name": "candidate",
          "type": "string"
        }
      ],
      "name": "voteForCandidate",
      "outputs": [],
      "payable": false,
      "stateMutability": "nonpayable",
      "type": "function"
    },
    {
      "constant": true,
      "inputs": [
        {
          "name": "candidate",
          "type": "string"
        }
      ],
      "name": "validCandidate",
      "outputs": [
        {
          "name": "",
          "type": "bool"
        }
      ],
      "payable": false,
      "stateMutability": "view",
      "type": "function"
    }
  ],
  "bytecode": "0x608060405234801561001057600080fd5b506107c0806100206000396000f300608060405260043610610078576000357c0100000000000000000000000000000000000000000000000000000000900463ffffffff168063462e91ec1461007d5780634a3bf377146100e6578063538c91b2146101695780637021939f146101ea578063b13c744b14610235578063e89927ef146102db575b600080fd5b34801561008957600080fd5b506100e4600480360381019080803590602001908201803590602001908080601f0160208091040260200160405190810160405280939291908181526020018383808284378201915050505050509192919290505050610344565b005b3480156100f257600080fd5b5061014d600480360381019080803590602001908201803590602001908080601f0160208091040260200160405190810160405280939291908181526020018383808284378201915050505050509192919290505050610386565b604051808260ff1660ff16815260200191505060405180910390f35b34801561017557600080fd5b506101d0600480360381019080803590602001908201803590602001908080601f016020809104026020016040519081016040528093929190818152602001838380828437820191505050505050919291929050505061042d565b604051808215151515815260200191505060405180910390f35b3480156101f657600080fd5b506102196004803603810190808035600019169060200190929190505050610555565b604051808260ff1660ff16815260200191505060405180910390f35b34801561024157600080fd5b5061026060048036038101908080359060200190929190505050610575565b6040518080602001828103825283818151815260200191508051906020019080838360005b838110156102a0578082015181840152602081019050610285565b50505050905090810190601f1680156102cd5780820380516001836020036101000a031916815260200191505b509250505060405180910390f35b3480156102e757600080fd5b50610342600480360381019080803590602001908201803590602001908080601f0160208091040260200160405190810160405280939291908181526020018383808284378201915050505050509192919290505050610630565b005b60018190806001815401808255809150509060018203906000526020600020016000909192909190915090805190602001906103819291906106ef565b505050565b60006103918261042d565b151561039c57600080fd5b600080836040518082805190602001908083835b6020831015156103d557805182526020820191506020810190506020830392506103b0565b6001836020036101000a03801982511681845116808217855250505050505090500191505060405180910390206000191660001916815260200190815260200160002060009054906101000a900460ff169050919050565b600080600090505b60018054905081101561054a57826040518082805190602001908083835b6020831015156104785780518252602082019150602081019050602083039250610453565b6001836020036101000a0380198251168184511680821785525050505050509050019150506040518091039020600019166001828154811015156104b857fe5b90600052602060002001604051808280546001816001161561010002031660029004801561051d5780601f106104fb57610100808354040283529182019161051d565b820191906000526020600020905b815481529060010190602001808311610509575b5050915050604051809103902060001916141561053d576001915061054f565b8080600101915050610435565b600091505b50919050565b60006020528060005260406000206000915054906101000a900460ff1681565b60018181548110151561058457fe5b906000526020600020016000915090508054600181600116156101000203166002900480601f0160208091040260200160405190810160405280929190818152602001828054600181600116156101000203166002900480156106285780601f106105fd57610100808354040283529160200191610628565b820191906000526020600020905b81548152906001019060200180831161060b57829003601f168201915b505050505081565b6106398161042d565b151561064457600080fd5b6001600080836040518082805190602001908083835b60208310151561067f578051825260208201915060208101905060208303925061065a565b6001836020036101000a03801982511681845116808217855250505050505090500191505060405180910390206000191660001916815260200190815260200160002060008282829054906101000a900460ff160192506101000a81548160ff021916908360ff16021790555050565b828054600181600116156101000203166002900490600052602060002090601f016020900481019282601f1061073057805160ff191683800117855561075e565b8280016001018555821561075e579182015b8281111561075d578251825591602001919060010190610742565b5b50905061076b919061076f565b5090565b61079191905b8082111561078d576000816000905550600101610775565b5090565b905600a165627a7a72305820d9c39eb4e3e22160a800b4ec2d75f45069de8f56198f6f12c39f2d56948237c50029",
  "source": "pragma solidity ^0.4.18;\n \ncontract Voting {\n \n    mapping (bytes32 => uint8) public votesReceived;\n \n    string[] public candidateList;\n \n    function addCandidate(string candidateNames) public {\n        candidateList.push(candidateNames);\n    }\n \n    function totalVotesFor(string candidate) view public returns (uint8) {\n        require(validCandidate(candidate));\n        return votesReceived[keccak256(candidate)];\n    }\n    \n    function voteForCandidate(string candidate) public {\n        require(validCandidate(candidate));\n        votesReceived[keccak256(candidate)] += 1;\n    }\n    \n    function validCandidate(string candidate) view public returns (bool) {\n        for(uint i = 0; i < candidateList.length; i++) {\n            if (keccak256(candidateList[i]) == keccak256(candidate)) {\n                return true;\n            }\n        }\n        return false;\n    }\n}",
  "sourcePath": "/home/android-m8d8y15/BLOCKCHAIN-PROJECT/blockchain-training/DAY 17/voting/contracts/Voting.sol",
  "compiler": {
    "name": "solc",
    "version": "0.4.23+commit.124ca40d.Emscripten.clang"
  },
  "schemaVersion": "2.0.0",
  "updatedAt": "2018-06-06T09:30:08.391Z"
}