{
  "contractName": "PublicArticle",
  "abi": [
    {
      "constant": true,
      "inputs": [],
      "name": "owner",
      "outputs": [
        {
          "name": "",
          "type": "address"
        }
      ],
      "payable": false,
      "stateMutability": "view",
      "type": "function"
    },
    {
      "constant": true,
      "inputs": [],
      "name": "expires",
      "outputs": [
        {
          "name": "",
          "type": "uint256"
        }
      ],
      "payable": false,
      "stateMutability": "view",
      "type": "function"
    },
    {
      "constant": false,
      "inputs": [
        {
          "name": "_articleName",
          "type": "string"
        }
      ],
      "name": "setArticleName",
      "outputs": [],
      "payable": false,
      "stateMutability": "nonpayable",
      "type": "function"
    },
    {
      "constant": false,
      "inputs": [
        {
          "name": "_articleText",
          "type": "string"
        }
      ],
      "name": "setArticleText",
      "outputs": [],
      "payable": false,
      "stateMutability": "nonpayable",
      "type": "function"
    },
    {
      "constant": false,
      "inputs": [
        {
          "name": "_duration",
          "type": "uint256"
        }
      ],
      "name": "setDuration",
      "outputs": [],
      "payable": false,
      "stateMutability": "nonpayable",
      "type": "function"
    },
    {
      "constant": true,
      "inputs": [],
      "name": "getArticleName",
      "outputs": [
        {
          "name": "",
          "type": "string"
        }
      ],
      "payable": false,
      "stateMutability": "view",
      "type": "function"
    },
    {
      "constant": true,
      "inputs": [],
      "name": "getArticleText",
      "outputs": [
        {
          "name": "",
          "type": "string"
        }
      ],
      "payable": false,
      "stateMutability": "view",
      "type": "function"
    }
  ],
  "bytecode": "0x608060405233600360006101000a81548173ffffffffffffffffffffffffffffffffffffffff021916908373ffffffffffffffffffffffffffffffffffffffff16021790555034801561005157600080fd5b506106e0806100616000396000f300608060405260043610610083576000357c0100000000000000000000000000000000000000000000000000000000900463ffffffff16806339093c9c1461008857806362940a14146101185780638da5cb5b146101a8578063b1cb0db3146101ff578063b2ae64d31461022a578063bfd240cc14610293578063f6be71d1146102fc575b600080fd5b34801561009457600080fd5b5061009d610329565b6040518080602001828103825283818151815260200191508051906020019080838360005b838110156100dd5780820151818401526020810190506100c2565b50505050905090810190601f16801561010a5780820380516001836020036101000a031916815260200191505b509250505060405180910390f35b34801561012457600080fd5b5061012d6103dc565b6040518080602001828103825283818151815260200191508051906020019080838360005b8381101561016d578082015181840152602081019050610152565b50505050905090810190601f16801561019a5780820380516001836020036101000a031916815260200191505b509250505060405180910390f35b3480156101b457600080fd5b506101bd61048f565b604051808273ffffffffffffffffffffffffffffffffffffffff1673ffffffffffffffffffffffffffffffffffffffff16815260200191505060405180910390f35b34801561020b57600080fd5b506102146104b5565b6040518082815260200191505060405180910390f35b34801561023657600080fd5b50610291600480360381019080803590602001908201803590602001908080601f01602080910402602001604051908101604052809392919081815260200183838082843782019150505050505091929192905050506104bb565b005b34801561029f57600080fd5b506102fa600480360381019080803590602001908201803590602001908080601f0160208091040260200160405190810160405280939291908181526020018383808284378201915050505050509192919290505050610531565b005b34801561030857600080fd5b50610327600480360381019080803590602001909291905050506105a7565b005b6060600254421115151561033c57600080fd5b60018054600181600116156101000203166002900480601f0160208091040260200160405190810160405280929190818152602001828054600181600116156101000203166002900480156103d25780601f106103a7576101008083540402835291602001916103d2565b820191906000526020600020905b8154815290600101906020018083116103b557829003601f168201915b5050505050905090565b606060025442111515156103ef57600080fd5b60008054600181600116156101000203166002900480601f0160208091040260200160405190810160405280929190818152602001828054600181600116156101000203166002900480156104855780601f1061045a57610100808354040283529160200191610485565b820191906000526020600020905b81548152906001019060200180831161046857829003601f168201915b5050505050905090565b600360009054906101000a900473ffffffffffffffffffffffffffffffffffffffff1681565b60025481565b600360009054906101000a900473ffffffffffffffffffffffffffffffffffffffff1673ffffffffffffffffffffffffffffffffffffffff163373ffffffffffffffffffffffffffffffffffffffff1614151561051757600080fd5b806001908051906020019061052d92919061060f565b5050565b600360009054906101000a900473ffffffffffffffffffffffffffffffffffffffff1673ffffffffffffffffffffffffffffffffffffffff163373ffffffffffffffffffffffffffffffffffffffff1614151561058d57600080fd5b80600090805190602001906105a392919061060f565b5050565b600360009054906101000a900473ffffffffffffffffffffffffffffffffffffffff1673ffffffffffffffffffffffffffffffffffffffff163373ffffffffffffffffffffffffffffffffffffffff1614151561060357600080fd5b80420160028190555050565b828054600181600116156101000203166002900490600052602060002090601f016020900481019282601f1061065057805160ff191683800117855561067e565b8280016001018555821561067e579182015b8281111561067d578251825591602001919060010190610662565b5b50905061068b919061068f565b5090565b6106b191905b808211156106ad576000816000905550600101610695565b5090565b905600a165627a7a72305820a6730212f5c6ac7ccd963873271584f4332e18e7b7382bc76d2252a6c4feb1600029",
  "source": "pragma solidity ^0.4.23;\n\ncontract PublicArticle {\n    string private articleName;\n    string private articleText;\n\n    uint public expires;\n\n    address public owner = msg.sender;\n\n    modifier onlyOwner() {\n        require(msg.sender == owner);\n        _;\n    }\n\n    modifier limitedTime() {\n        require(now <= expires);\n        _;\n    }\n\n    function setArticleName(string _articleName) public onlyOwner {\n        articleName = _articleName;\n    }\n\n    function setArticleText(string _articleText) public onlyOwner {\n        articleText = _articleText;\n    }\n\n    function setDuration(uint _duration) public onlyOwner {\n        expires = now + _duration;\n    }\n\n    function getArticleName() view public limitedTime returns (string) {\n        return articleName;\n    }\n\n    function getArticleText() view public limitedTime returns (string) {\n        return articleText;\n    }\n}",
  "sourcePath": "/home/android-m8d8y15/BLOCKCHAIN PROJECT/blockchain-training/DAY 14/truffle-project/contracts/PublicArticle.sol",
  "compiler": {
    "name": "solc",
    "version": "0.4.23+commit.124ca40d.Emscripten.clang"
  },
  "schemaVersion": "2.0.0",
  "updatedAt": "2018-05-30T03:43:57.056Z"
}